{
  "contractName": "ETHBuenosAiresRanking",
  "abi": [
    {
      "constant": true,
      "inputs": [],
      "name": "owner",
      "outputs": [
        {
          "name": "",
          "type": "address"
        }
      ],
      "payable": false,
      "stateMutability": "view",
      "type": "function"
    },
    {
      "constant": false,
      "inputs": [
        {
          "name": "newOwner",
          "type": "address"
        }
      ],
      "name": "transferOwnership",
      "outputs": [],
      "payable": false,
      "stateMutability": "nonpayable",
      "type": "function"
    },
    {
      "constant": true,
      "inputs": [],
      "name": "getParticipants",
      "outputs": [
        {
          "name": "",
          "type": "address[]"
        }
      ],
      "payable": false,
      "stateMutability": "view",
      "type": "function"
    },
    {
      "constant": true,
      "inputs": [],
      "name": "amIParticipant",
      "outputs": [
        {
          "name": "",
          "type": "bool"
        }
      ],
      "payable": false,
      "stateMutability": "view",
      "type": "function"
    },
    {
      "constant": true,
      "inputs": [],
      "name": "competitionHasStarted",
      "outputs": [
        {
          "name": "",
          "type": "bool"
        }
      ],
      "payable": false,
      "stateMutability": "view",
      "type": "function"
    },
    {
      "constant": false,
      "inputs": [
        {
          "name": "problemGenerator",
          "type": "address"
        }
      ],
      "name": "setUpProblemGenerator",
      "outputs": [],
      "payable": false,
      "stateMutability": "nonpayable",
      "type": "function"
    },
    {
      "constant": false,
      "inputs": [],
      "name": "signUp",
      "outputs": [],
      "payable": true,
      "stateMutability": "payable",
      "type": "function"
    },
    {
      "constant": false,
      "inputs": [
        {
          "name": "posibleSolution",
          "type": "bytes"
        }
      ],
      "name": "submit",
      "outputs": [
        {
          "name": "",
          "type": "bool"
        }
      ],
      "payable": false,
      "stateMutability": "nonpayable",
      "type": "function"
    },
    {
      "constant": false,
      "inputs": [],
      "name": "releaseNewCompetition",
      "outputs": [],
      "payable": false,
      "stateMutability": "nonpayable",
      "type": "function"
    }
  ],
  "bytecode": "0x60806040526000600160006101000a81548173ffffffffffffffffffffffffffffffffffffffff021916908373ffffffffffffffffffffffffffffffffffffffff160217905550336000806101000a81548173ffffffffffffffffffffffffffffffffffffffff021916908373ffffffffffffffffffffffffffffffffffffffff160217905550610cf5806100956000396000f300608060405260043610610099576000357c0100000000000000000000000000000000000000000000000000000000900463ffffffff1680635160a9a21461009e5780635aa68ac0146100b5578063787dbd4b146101215780638da5cb5b146101505780639a6e7ba0146101a7578063bf96ae63146101d6578063d5248d2f146101e0578063ef7fa71b14610223578063f2fde38b14610276575b600080fd5b3480156100aa57600080fd5b506100b36102b9565b005b3480156100c157600080fd5b506100ca610417565b6040518080602001828103825283818151815260200191508051906020019060200280838360005b8381101561010d5780820151818401526020810190506100f2565b505050509050019250505060405180910390f35b34801561012d57600080fd5b506101366104a5565b604051808215151515815260200191505060405180910390f35b34801561015c57600080fd5b50610165610545565b604051808273ffffffffffffffffffffffffffffffffffffffff1673ffffffffffffffffffffffffffffffffffffffff16815260200191505060405180910390f35b3480156101b357600080fd5b506101bc61056a565b604051808215151515815260200191505060405180910390f35b6101de610581565b005b3480156101ec57600080fd5b50610221600480360381019080803573ffffffffffffffffffffffffffffffffffffffff16906020019092919050505061071b565b005b34801561022f57600080fd5b5061025c60048036038101908080359060200190820180359060200191909192939192939050505061081d565b604051808215151515815260200191505060405180910390f35b34801561028257600080fd5b506102b7600480360381019080803573ffffffffffffffffffffffffffffffffffffffff169060200190929190505050610a43565b005b6000809054906101000a900473ffffffffffffffffffffffffffffffffffffffff1673ffffffffffffffffffffffffffffffffffffffff163373ffffffffffffffffffffffffffffffffffffffff1614151561031457600080fd5b600160149054906101000a900460ff1615151561033057600080fd5b600160035411151561034157600080fd5b600160009054906101000a900473ffffffffffffffffffffffffffffffffffffffff1673ffffffffffffffffffffffffffffffffffffffff1663e8fec9e460035461038a610b18565b6040518363ffffffff167c01000000000000000000000000000000000000000000000000000000000281526004018083815260200182815260200192505050600060405180830381600087803b1580156103e357600080fd5b505af11580156103f7573d6000803e3d6000fd5b5050505060018060146101000a81548160ff021916908315150217905550565b6060600280548060200260200160405190810160405280929190818152602001828054801561049b57602002820191906000526020600020905b8160009054906101000a900473ffffffffffffffffffffffffffffffffffffffff1673ffffffffffffffffffffffffffffffffffffffff1681526020019060010190808311610451575b5050505050905090565b6000806000809150600090505b600354821080156104c1575080155b1561053d573373ffffffffffffffffffffffffffffffffffffffff166002838154811015156104ec57fe5b9060005260206000200160009054906101000a900473ffffffffffffffffffffffffffffffffffffffff1673ffffffffffffffffffffffffffffffffffffffff1614905081806001019250506104b2565b809250505090565b6000809054906101000a900473ffffffffffffffffffffffffffffffffffffffff1681565b6000600160149054906101000a900460ff16905090565b60008060009150600090505b6003548210801561059c575080155b15610618573373ffffffffffffffffffffffffffffffffffffffff166002838154811015156105c757fe5b9060005260206000200160009054906101000a900473ffffffffffffffffffffffffffffffffffffffff1673ffffffffffffffffffffffffffffffffffffffff16149050818060010192505061058d565b8015151561062557600080fd5b600160149054906101000a900460ff1615151561064157600080fd5b600160009054906101000a900473ffffffffffffffffffffffffffffffffffffffff1673ffffffffffffffffffffffffffffffffffffffff166309bc33a76040518163ffffffff167c0100000000000000000000000000000000000000000000000000000000028152600401602060405180830381600087803b1580156106c757600080fd5b505af11580156106db573d6000803e3d6000fd5b505050506040513d60208110156106f157600080fd5b81019080805190602001909291905050503414151561070f57600080fd5b610717610b59565b5050565b60008060009054906101000a900473ffffffffffffffffffffffffffffffffffffffff1673ffffffffffffffffffffffffffffffffffffffff163373ffffffffffffffffffffffffffffffffffffffff1614151561077857600080fd5b600073ffffffffffffffffffffffffffffffffffffffff16600160009054906101000a900473ffffffffffffffffffffffffffffffffffffffff1673ffffffffffffffffffffffffffffffffffffffff161415156107d557600080fd5b81905080600160006101000a81548173ffffffffffffffffffffffffffffffffffffffff021916908373ffffffffffffffffffffffffffffffffffffffff1602179055505050565b6000806000809150600090505b60035482108015610839575080155b156108b5573373ffffffffffffffffffffffffffffffffffffffff1660028381548110151561086457fe5b9060005260206000200160009054906101000a900473ffffffffffffffffffffffffffffffffffffffff1673ffffffffffffffffffffffffffffffffffffffff16149050818060010192505061082a565b8015156108c157600080fd5b600160149054906101000a900460ff1615156108dc57600080fd5b600160009054906101000a900473ffffffffffffffffffffffffffffffffffffffff1673ffffffffffffffffffffffffffffffffffffffff1663cb7d69aa86866040518363ffffffff167c01000000000000000000000000000000000000000000000000000000000281526004018080602001828103825284848281815260200192508082843782019150509350505050602060405180830381600087803b15801561098757600080fd5b505af115801561099b573d6000803e3d6000fd5b505050506040513d60208110156109b157600080fd5b810190808051906020019092919050505015610a36576109cf610bec565b3373ffffffffffffffffffffffffffffffffffffffff166108fc3073ffffffffffffffffffffffffffffffffffffffff16319081150290604051600060405180830381858888f19350505050158015610a2c573d6000803e3d6000fd5b5060019250610a3b565b600092505b505092915050565b6000809054906101000a900473ffffffffffffffffffffffffffffffffffffffff1673ffffffffffffffffffffffffffffffffffffffff163373ffffffffffffffffffffffffffffffffffffffff16141515610a9e57600080fd5b600073ffffffffffffffffffffffffffffffffffffffff168173ffffffffffffffffffffffffffffffffffffffff16141515610b1557806000806101000a81548173ffffffffffffffffffffffffffffffffffffffff021916908373ffffffffffffffffffffffffffffffffffffffff1602179055505b50565b600060405180807f666f6f00000000000000000000000000000000000000000000000000000000008152506003019050604051809103902060019004905090565b6002805490506003541415610b82576001600281818054905001915081610b809190610c78565b505b3360026003600081548092919060010191905055815481101515610ba257fe5b9060005260206000200160006101000a81548173ffffffffffffffffffffffffffffffffffffffff021916908373ffffffffffffffffffffffffffffffffffffffff160217905550565b600160149054906101000a900460ff161515610c0757600080fd5b6000600160006101000a81548173ffffffffffffffffffffffffffffffffffffffff021916908373ffffffffffffffffffffffffffffffffffffffff1602179055506000600160146101000a81548160ff021916908315150217905550610c6c610c6e565b565b6000600381905550565b815481835581811115610c9f57818360005260206000209182019101610c9e9190610ca4565b5b505050565b610cc691905b80821115610cc2576000816000905550600101610caa565b5090565b905600a165627a7a72305820b29184e898fc987fad96d08525171cdfcb6059c428d6e72e5056abe6539ee8340029",
  "source": "pragma solidity ^0.4.18;\n\ncontract RankingProblem {\n    \n    function generateNewProblem(uint participants, uint seed) public;\n    function getEntranceFee() public view returns (uint fee);\n    function checkSolution(bytes posibleSolution) public view returns (bool isSolution);\n    function getProblemData() public view returns (bytes problemData);\n    \n}\n\ncontract Ownable {  \n    address public owner;\n\n    // WTF WHY DO I DO THIS PUBLIC?\n    constructor() public {\n        owner = msg.sender;\n    }\n\n    modifier onlyOwner() {\n        require(msg.sender == owner);\n        _;\n    }\n\n    function transferOwnership(address newOwner) external onlyOwner {\n        if (newOwner != address(0)) {\n            owner = newOwner;\n        }\n    }\n\n}\n\ncontract ETHBuenosAiresRanking is Ownable {\n    \n    RankingProblem problem = RankingProblem(address(0));\n\n    bool isRunning;    \n    address[] participants;\n    uint participantsSize;\n    \n    modifier isParticipant() {\n        uint i = 0;\n        bool found = false;\n        while(i<participantsSize && !found) {\n            found = participants[i] == msg.sender;\n            i++;\n        }\n        require(found);\n        _;\n    }\n\n    modifier isNotParticipant() {\n        uint i = 0;\n        bool found = false;\n        while(i<participantsSize && !found) {\n            found = participants[i] == msg.sender;\n            i++;\n        }\n        require(!found);\n        _;\n    }\n    \n    modifier notYetStarted() {\n        require(!isRunning);\n        _;\n    }\n    \n    modifier hasStarted() {\n        require(isRunning);\n        _;\n    }\n\n    function getParticipants() view external returns (address[]) {\n        return participants;\n    }\n\n    function amIParticipant() view external returns (bool) {\n        uint i = 0;\n        bool found = false;\n        while(i<participantsSize && !found) {\n            found = (participants[i] == msg.sender);\n            i++;\n        }\n        return found;\n    }\n\n    function competitionHasStarted() view external returns (bool) {\n        return isRunning;\n    }\n\n    function setUpProblemGenerator(address problemGenerator) external onlyOwner {\n        require(problem == address(0));\n        RankingProblem rankingProblem = RankingProblem(problemGenerator);\n        problem = rankingProblem;\n    }\n\n    function addParticipant() private {\n        if(participantsSize == participants.length) {\n            participants.length += 1;\n        }\n        participants[participantsSize++] = msg.sender;\n    }\n\n    function resetParticipants() private {\n        participantsSize = 0;\n    }\n\n    function signUp() external payable isNotParticipant notYetStarted {\n        require(msg.value == problem.getEntranceFee());\n        addParticipant();\n    }\n\n    function submit(bytes posibleSolution) external isParticipant hasStarted returns (bool) {\n        if(problem.checkSolution(posibleSolution)) {\n            endCompetition();\n            msg.sender.transfer(address(this).balance);\n            return true;\n        }\n\n        return false;\n    }\n\n    function releaseNewCompetition() external onlyOwner notYetStarted {\n        require(participantsSize>1);\n        problem.generateNewProblem(participantsSize, generateRandom());\n        isRunning = true;\n    }\n\n    function endCompetition() private hasStarted {\n        problem = RankingProblem(address(0));\n        isRunning = false;\n        resetParticipants();\n    }\n    \n    function generateRandom() private pure returns (uint rand) {\n        return uint(keccak256(\"foo\"));\n    }\n}\n",
  "sourcePath": "/Users/argentinoducret/Projects/ETHStuff/contracts/RankingProblem.sol",
  "compiler": {
    "name": "solc",
    "version": "0.4.24+commit.e67f0147.Emscripten.clang"
  },
  "schemaVersion": "2.0.0",
  "updatedAt": "2018-05-26T02:41:14.187Z"
}