{
  "contractName": "ETHBuenosAiresTrivialProblem",
  "abi": [
    {
      "constant": true,
      "inputs": [],
      "name": "getProblemNumber",
      "outputs": [
        {
          "name": "problemNumber",
          "type": "uint256"
        }
      ],
      "payable": false,
      "stateMutability": "view",
      "type": "function"
    },
    {
      "constant": true,
      "inputs": [
        {
          "name": "posibleSolution",
          "type": "bytes"
        }
      ],
      "name": "checkSolution",
      "outputs": [
        {
          "name": "",
          "type": "bool"
        }
      ],
      "payable": false,
      "stateMutability": "view",
      "type": "function"
    },
    {
      "constant": true,
      "inputs": [],
      "name": "getProblemData",
      "outputs": [
        {
          "name": "data",
          "type": "bytes"
        }
      ],
      "payable": false,
      "stateMutability": "view",
      "type": "function"
    },
    {
      "constant": false,
      "inputs": [
        {
          "name": "participants",
          "type": "uint256"
        },
        {
          "name": "seed",
          "type": "uint256"
        }
      ],
      "name": "generateNewProblem",
      "outputs": [],
      "payable": false,
      "stateMutability": "nonpayable",
      "type": "function"
    },
    {
      "constant": true,
      "inputs": [],
      "name": "getEntranceFee",
      "outputs": [
        {
          "name": "fee",
          "type": "uint256"
        }
      ],
      "payable": false,
      "stateMutability": "view",
      "type": "function"
    }
  ],
  "bytecode": "0x608060405234801561001057600080fd5b506103c0806100206000396000f30060806040526004361061006d576000357c0100000000000000000000000000000000000000000000000000000000900463ffffffff16806309bc33a714610072578063253a29ab1461009d5780637dc6420f146100c8578063cb7d69aa14610158578063e8fec9e4146101d9575b600080fd5b34801561007e57600080fd5b50610087610210565b6040518082815260200191505060405180910390f35b3480156100a957600080fd5b506100b2610218565b6040518082815260200191505060405180910390f35b3480156100d457600080fd5b506100dd610221565b6040518080602001828103825283818151815260200191508051906020019080838360005b8381101561011d578082015181840152602081019050610102565b50505050905090810190601f16801561014a5780820380516001836020036101000a031916815260200191505b509250505060405180910390f35b34801561016457600080fd5b506101bf600480360381019080803590602001908201803590602001908080601f016020809104026020016040519081016040528093929190818152602001838380828437820191505050505050919291929050505061025e565b604051808215151515815260200191505060405180910390f35b3480156101e557600080fd5b5061020e60048036038101908080359060200190929190803590602001909291905050506102a6565b005b600080905090565b60008054905090565b60606040805190810160405280600181526020017f4100000000000000000000000000000000000000000000000000000000000000815250905090565b600061029f826040805190810160405280600181526020017f41000000000000000000000000000000000000000000000000000000000000008152506102bb565b9050919050565b60008081548092919060010191905055505050565b6000816040518082805190602001908083835b6020831015156102f357805182526020820191506020810190506020830392506102ce565b6001836020036101000a038019825116818451168082178552505050505050905001915050604051809103902060001916836040518082805190602001908083835b60208310151561035a5780518252602082019150602081019050602083039250610335565b6001836020036101000a038019825116818451168082178552505050505050905001915050604051809103902060001916149050929150505600a165627a7a72305820af026f05c982ecf4f742272202f79a70f8934b5423c85b2271a1d5e036948c490029",
  "source": "pragma solidity ^0.4.18;\n\ncontract RankingProblem {\n    \n    function generateNewProblem(uint participants, uint seed) public;\n    function getEntranceFee() public view returns (uint fee);\n    function checkSolution(bytes posibleSolution) public view returns (bool isSolution);\n    function getProblemData() public view returns (bytes problemData);\n    \n}\n\ncontract ETHBuenosAiresTrivialProblem is RankingProblem {\n    uint problem;\n\n    function getProblemNumber() external view returns (uint problemNumber) {\n        return problem;\n    }\n\n    function comparebytess (bytes a, bytes b) private pure returns (bool comparison){\n        return keccak256(a) == keccak256(b);\n    }\n\n    function checkSolution(bytes posibleSolution) public view returns (bool) {\n        return comparebytess(posibleSolution, \"A\");\n    }\n\n    function getProblemData() public view returns (bytes data) {\n        return \"A\";\n    }\n\n    function generateNewProblem(uint participants, uint seed) public {\n        problem++;\n        // participants = participants;\n        // seed = seed;\n    }\n\n    function getEntranceFee() public view returns (uint fee) {\n        return 0;\n    }\n\n}\n",
  "sourcePath": "/Users/argentinoducret/Projects/ETHStuff/contracts/ETHBuenosAiresTrivialProblem.sol",
  "compiler": {
    "name": "solc",
    "version": "0.4.24+commit.e67f0147.Emscripten.clang"
  },
  "schemaVersion": "2.0.0",
  "updatedAt": "2018-05-26T02:41:14.184Z"
}